:10046700EF4E600F7D027CEFDCFEDDFCEF1F70F0CE
:030477001E80EDF7
:01047A00225F
:0604A100C2A58F80D2A766
:0804A7007F027EEFDEFEDFFCA8
:0104AF00222A
:0A04BC00C2A61204A1C2A70204A701
:10042B00CFCDCFCECCCE12028C7C007D0A12028CAB
:04043B00ED2430FF7D
:0A043F00D2A61204A1C2A70204A76E
:10044900AE07EEFB7A0064017004ED148009EB64D9
:0E045900024A7009ED243F4480FF1204BC22C9
:10047B007F381204BC7F0C1204BC7F061204BC7FB5
:04048B00010204BCAA
:0A04C600AC03120449AF0402043F26
:060408008B088A09890A35
:10040E00120449E4FDAB08AA09A90A8D827583007E
:0C041E0012024DFF600612043F0D80E941
:01042A0022AF
:0A03B300EF24FFFDEE34FFFC7F0A8B
:0803BD008E0D8F0E8C0F8D10C8
:1003C5007F017E00E4FBEBC39510E50F6480F874B4
:0E03D5008098500AAC0DAD0E12027A0B80E833
:0103E30022F7
:0403E4008A0A8B0BEB
:1003E800120449AA0CEAFF7E00D39400748094801A
:0F03F800400D1203B3AC0AAD0B12042B1A80E6B2
:0104070022D2
:04032C008B828A83B3
:10033000120449C3E58364809480400D7F2B12042E
:100340003F85831685821780107F2D12043FC3E4FA
:100350009582F517E49583F516AA15EAFF7E00D37A
:10036000940074809480400D1203B3AC16AD171244
:05037000042B1A80E6D9
:010375002265
:0402E1008A1A8B1BCF
:1002E500120449AA1CEAD39400748094804037EA2A
:1002F50024FFFDE434FFFC7F107E001203BDAC1A21
:10030500AD1BCFCDCFCECCCE12028CEF540FFEC39A
:10031500940A74809480EE5004243080022437FFC0
:0603250012043F1A80BF24
:01032B0022AF
:040376008A1F8B202F
:10037A00120449AA21EAFF7E00D394007480948073
:10038A004026EF24FFFDEE34FFFC7F021203BDACD2
:10039A001FAD20CFCDCFCECCCE12028CEF5401248C
:0803AA0030FF12043F1A80CD60
:0103B2002228
:10048F0050617373776F72643A004F4B200045527F
:02049F00520009
:10018C0012047B7BFF7A04798F7D017F01120408B6
:10019C001200038F26E52660F7D3940A74809480AE
:1001AC005041C3E5239404E52294005028AE24AFBB
:1001BC00257C007D0A12027A8E248F25E52675F0A7
:1001CC000A84E5F02525F525E43524F5240523E5F9
:1001DC002370020522750C04AB25AA247D017F0235
:1001EC001203E4E526640B7036E525B4E60DE52430
:1001FC00B407087BFF7A04799980067BFF7A04792F
:10020C009D7D0E7F01120408E4F524F525F522F5F9
:10021C0023750C04AB25AA247D017F021203E4E5AF
:10022C0026640C600302019CF524F525F522F523C8
:10023C00750C04AB25AA247D017F021203E4020194
:01024C009C15
:10000300E4F5087590FFC2932097137F14FE120442
:10001300673097FD7F147E001204677508012096F0
:10002300147F147E001204673096FD7F147E001245
:1000330004677508052095147F147E001204673049
:1000430095FD7F147E001204677508092094147FC0
:10005300147E001204673094FD7F147E001204673F
:1000630075080D7590FFC2922097147F147E0012BD
:1000730004673097FD7F147E001204677508022021
:1000830096147F147E001204673096FD7F147E0061
:100093001204677508062095147F147E0012046706
:1000A3003095FD7F147E0012046775080A209414AE
:1000B3007F147E001204673094FD7F147E001204C7
:1000C3006775080E7590FFC2912097147F147E0008
:1000D3001204673097FD7F147E00120467750803CE
:1000E3002096147F147E001204673096FD7F147EE1
:1000F300001204677508072095147F147E0012040C
:10010300673095FD7F147E0012046775080B2094F9
:10011300147F147E001204673094FD7F147E001256
:10012300046775080F7590FFC2902097147F147EA3
:10013300001204673097FD7F147E00120467750870
:10014300042096147F147E001204673096FD7F14FA
:100153007E001204677508082095147F147E001230
:1001630004673095FD7F147E0012046775080C2028
:1001730094147F147E001204673094FD7F147E0074
:08018300120467750810AF08B3
:01018B002251
:030000000204B047
:0C04B000787FE4F6D8FD75812602018CEF
:10024D00BB010CE58229F582E5833AF583E0225066
:10025D0006E92582F8E622BBFE06E92582F8E222B0
:0D026D00E58229F582E5833AF583E49322CA
:10027A00EF8DF0A4A8F0CF8CF0A428CE8DF0A42E98
:02028A00FE2252
:10028C00BC000BBE0029EF8DF084FFADF022E4CC56
:10029C00F875F008EF2FFFEE33FEEC33FCEE9DEC1F
:1002AC00984005FCEE9DFE0FD5F0E9E4CEFD22ED65
:1002BC00F8F5F0EE8420D21CFEADF075F008EF2FAF
:1002CC00FFED33FD4007985006D5F0F222C398FDA0
:0502DC000FD5F0EA223D
:00000001FF
